{
    "_format": "hh-sol-artifact-1",
    "contractName": "Transactions",
    "sourceName": "contracts/Transactions.sol",
    "abi": [
        {
            "anonymous": false,
            "inputs": [
                {
                    "indexed": false,
                    "internalType": "address",
                    "name": "sender",
                    "type": "address"
                },
                {
                    "indexed": false,
                    "internalType": "address",
                    "name": "receiver",
                    "type": "address"
                },
                {
                    "indexed": false,
                    "internalType": "uint256",
                    "name": "amount",
                    "type": "uint256"
                },
                {
                    "indexed": false,
                    "internalType": "string",
                    "name": "message",
                    "type": "string"
                },
                {
                    "indexed": false,
                    "internalType": "string",
                    "name": "keyward",
                    "type": "string"
                },
                {
                    "indexed": false,
                    "internalType": "uint256",
                    "name": "timestamp",
                    "type": "uint256"
                }
            ],
            "name": "createTransaction",
            "type": "event"
        },
        {
            "inputs": [
                {
                    "internalType": "address payable",
                    "name": "receiver",
                    "type": "address"
                },
                {
                    "internalType": "string",
                    "name": "message",
                    "type": "string"
                },
                {
                    "internalType": "string",
                    "name": "keyword",
                    "type": "string"
                },
                {
                    "internalType": "uint256",
                    "name": "amount",
                    "type": "uint256"
                }
            ],
            "name": "addTransaction",
            "outputs": [],
            "stateMutability": "nonpayable",
            "type": "function"
        },
        {
            "inputs": [],
            "name": "getTransactionCount",
            "outputs": [
                {
                    "internalType": "uint256",
                    "name": "",
                    "type": "uint256"
                }
            ],
            "stateMutability": "view",
            "type": "function"
        },
        {
            "inputs": [],
            "name": "getTransactions",
            "outputs": [
                {
                    "components": [
                        {
                            "internalType": "address",
                            "name": "sender",
                            "type": "address"
                        },
                        {
                            "internalType": "address payable",
                            "name": "receiver",
                            "type": "address"
                        },
                        {
                            "internalType": "uint256",
                            "name": "amount",
                            "type": "uint256"
                        },
                        {
                            "internalType": "string",
                            "name": "message",
                            "type": "string"
                        },
                        {
                            "internalType": "string",
                            "name": "keyward",
                            "type": "string"
                        },
                        {
                            "internalType": "uint256",
                            "name": "timestamp",
                            "type": "uint256"
                        }
                    ],
                    "internalType": "struct Transactions.Transaction[]",
                    "name": "",
                    "type": "tuple[]"
                }
            ],
            "stateMutability": "view",
            "type": "function"
        }
    ],
    "bytecode": "0x608060405234801561001057600080fd5b50610e2d806100206000396000f3fe608060405234801561001057600080fd5b50600436106100415760003560e01c80632e7700f0146100465780637aea878f1461006457806383920e9014610080575b600080fd5b61004e61009e565b60405161005b91906104b5565b60405180910390f35b61007e600480360381019061007991906106b4565b6100a7565b005b610088610259565b6040516100959190610963565b60405180910390f35b60008054905090565b6000808154809291906100b9906109b4565b919050555060016040518060c001604052803373ffffffffffffffffffffffffffffffffffffffff1681526020018673ffffffffffffffffffffffffffffffffffffffff16815260200183815260200185815260200184815260200142815250908060018154018082558091505060019003906000526020600020906006020160009091909190915060008201518160000160006101000a81548173ffffffffffffffffffffffffffffffffffffffff021916908373ffffffffffffffffffffffffffffffffffffffff16021790555060208201518160010160006101000a81548173ffffffffffffffffffffffffffffffffffffffff021916908373ffffffffffffffffffffffffffffffffffffffff1602179055506040820151816002015560608201518160030190816101ef9190610c08565b5060808201518160040190816102059190610c08565b5060a0820151816005015550507f04c0b1770c4952d6273f107110e425ded63967a5b58bcf93ceb050e1ca6436e333858386864260405161024b96959493929190610d88565b60405180910390a150505050565b60606001805480602002602001604051908101604052809291908181526020016000905b8282101561049357838290600052602060002090600602016040518060c00160405290816000820160009054906101000a900473ffffffffffffffffffffffffffffffffffffffff1673ffffffffffffffffffffffffffffffffffffffff1673ffffffffffffffffffffffffffffffffffffffff1681526020016001820160009054906101000a900473ffffffffffffffffffffffffffffffffffffffff1673ffffffffffffffffffffffffffffffffffffffff1673ffffffffffffffffffffffffffffffffffffffff1681526020016002820154815260200160038201805461036690610a2b565b80601f016020809104026020016040519081016040528092919081815260200182805461039290610a2b565b80156103df5780601f106103b4576101008083540402835291602001916103df565b820191906000526020600020905b8154815290600101906020018083116103c257829003601f168201915b505050505081526020016004820180546103f890610a2b565b80601f016020809104026020016040519081016040528092919081815260200182805461042490610a2b565b80156104715780601f1061044657610100808354040283529160200191610471565b820191906000526020600020905b81548152906001019060200180831161045457829003601f168201915b505050505081526020016005820154815250508152602001906001019061027d565b50505050905090565b6000819050919050565b6104af8161049c565b82525050565b60006020820190506104ca60008301846104a6565b92915050565b6000604051905090565b600080fd5b600080fd5b600073ffffffffffffffffffffffffffffffffffffffff82169050919050565b600061050f826104e4565b9050919050565b61051f81610504565b811461052a57600080fd5b50565b60008135905061053c81610516565b92915050565b600080fd5b600080fd5b6000601f19601f8301169050919050565b7f4e487b7100000000000000000000000000000000000000000000000000000000600052604160045260246000fd5b6105958261054c565b810181811067ffffffffffffffff821117156105b4576105b361055d565b5b80604052505050565b60006105c76104d0565b90506105d3828261058c565b919050565b600067ffffffffffffffff8211156105f3576105f261055d565b5b6105fc8261054c565b9050602081019050919050565b82818337600083830152505050565b600061062b610626846105d8565b6105bd565b90508281526020810184848401111561064757610646610547565b5b610652848285610609565b509392505050565b600082601f83011261066f5761066e610542565b5b813561067f848260208601610618565b91505092915050565b6106918161049c565b811461069c57600080fd5b50565b6000813590506106ae81610688565b92915050565b600080600080608085870312156106ce576106cd6104da565b5b60006106dc8782880161052d565b945050602085013567ffffffffffffffff8111156106fd576106fc6104df565b5b6107098782880161065a565b935050604085013567ffffffffffffffff81111561072a576107296104df565b5b6107368782880161065a565b92505060606107478782880161069f565b91505092959194509250565b600081519050919050565b600082825260208201905092915050565b6000819050602082019050919050565b600061078a826104e4565b9050919050565b61079a8161077f565b82525050565b6107a981610504565b82525050565b6107b88161049c565b82525050565b600081519050919050565b600082825260208201905092915050565b60005b838110156107f85780820151818401526020810190506107dd565b60008484015250505050565b600061080f826107be565b61081981856107c9565b93506108298185602086016107da565b6108328161054c565b840191505092915050565b600060c0830160008301516108556000860182610791565b50602083015161086860208601826107a0565b50604083015161087b60408601826107af565b50606083015184820360608601526108938282610804565b915050608083015184820360808601526108ad8282610804565b91505060a08301516108c260a08601826107af565b508091505092915050565b60006108d9838361083d565b905092915050565b6000602082019050919050565b60006108f982610753565b610903818561075e565b9350836020820285016109158561076f565b8060005b85811015610951578484038952815161093285826108cd565b945061093d836108e1565b925060208a01995050600181019050610919565b50829750879550505050505092915050565b6000602082019050818103600083015261097d81846108ee565b905092915050565b7f4e487b7100000000000000000000000000000000000000000000000000000000600052601160045260246000fd5b60006109bf8261049c565b91507fffffffffffffffffffffffffffffffffffffffffffffffffffffffffffffffff82036109f1576109f0610985565b5b600182019050919050565b7f4e487b7100000000000000000000000000000000000000000000000000000000600052602260045260246000fd5b60006002820490506001821680610a4357607f821691505b602082108103610a5657610a556109fc565b5b50919050565b60008190508160005260206000209050919050565b60006020601f8301049050919050565b600082821b905092915050565b600060088302610abe7fffffffffffffffffffffffffffffffffffffffffffffffffffffffffffffffff82610a81565b610ac88683610a81565b95508019841693508086168417925050509392505050565b6000819050919050565b6000610b05610b00610afb8461049c565b610ae0565b61049c565b9050919050565b6000819050919050565b610b1f83610aea565b610b33610b2b82610b0c565b848454610a8e565b825550505050565b600090565b610b48610b3b565b610b53818484610b16565b505050565b5b81811015610b7757610b6c600082610b40565b600181019050610b59565b5050565b601f821115610bbc57610b8d81610a5c565b610b9684610a71565b81016020851015610ba5578190505b610bb9610bb185610a71565b830182610b58565b50505b505050565b600082821c905092915050565b6000610bdf60001984600802610bc1565b1980831691505092915050565b6000610bf88383610bce565b9150826002028217905092915050565b610c11826107be565b67ffffffffffffffff811115610c2a57610c2961055d565b5b610c348254610a2b565b610c3f828285610b7b565b600060209050601f831160018114610c725760008415610c60578287015190505b610c6a8582610bec565b865550610cd2565b601f198416610c8086610a5c565b60005b82811015610ca857848901518255600182019150602085019450602081019050610c83565b86831015610cc55784890151610cc1601f891682610bce565b8355505b6001600288020188555050505b505050505050565b610ce38161077f565b82525050565b6000610d04610cff610cfa846104e4565b610ae0565b6104e4565b9050919050565b6000610d1682610ce9565b9050919050565b6000610d2882610d0b565b9050919050565b610d3881610d1d565b82525050565b600082825260208201905092915050565b6000610d5a826107be565b610d648185610d3e565b9350610d748185602086016107da565b610d7d8161054c565b840191505092915050565b600060c082019050610d9d6000830189610cda565b610daa6020830188610d2f565b610db760408301876104a6565b8181036060830152610dc98186610d4f565b90508181036080830152610ddd8185610d4f565b9050610dec60a08301846104a6565b97965050505050505056fea2646970667358221220966d3a42d6c393fbdd52baf7583337b2aa9628e26d885b7db7b48bfc8bfa12ff64736f6c63430008180033",
    "linkReferences": {},
    "deployedLinkReferences": {}
}